{
  "_format": "hh-sol-artifact-1",
  "contractName": "DinoSquad",
  "sourceName": "contracts/DinoSquad.sol",
  "abi": [
    {
      "inputs": [
        {
          "internalType": "string",
          "name": "_preRevealUrl",
          "type": "string"
        }
      ],
      "stateMutability": "nonpayable",
      "type": "constructor"
    },
    {
      "inputs": [],
      "name": "ApprovalCallerNotOwnerNorApproved",
      "type": "error"
    },
    {
      "inputs": [],
      "name": "ApprovalQueryForNonexistentToken",
      "type": "error"
    },
    {
      "inputs": [],
      "name": "ApprovalToCurrentOwner",
      "type": "error"
    },
    {
      "inputs": [],
      "name": "ApproveToCaller",
      "type": "error"
    },
    {
      "inputs": [],
      "name": "BalanceQueryForZeroAddress",
      "type": "error"
    },
    {
      "inputs": [],
      "name": "MintToZeroAddress",
      "type": "error"
    },
    {
      "inputs": [],
      "name": "MintZeroQuantity",
      "type": "error"
    },
    {
      "inputs": [],
      "name": "OwnerQueryForNonexistentToken",
      "type": "error"
    },
    {
      "inputs": [],
      "name": "TransferCallerNotOwnerNorApproved",
      "type": "error"
    },
    {
      "inputs": [],
      "name": "TransferFromIncorrectOwner",
      "type": "error"
    },
    {
      "inputs": [],
      "name": "TransferToNonERC721ReceiverImplementer",
      "type": "error"
    },
    {
      "inputs": [],
      "name": "TransferToZeroAddress",
      "type": "error"
    },
    {
      "inputs": [],
      "name": "URIQueryForNonexistentToken",
      "type": "error"
    },
    {
      "anonymous": false,
      "inputs": [
        {
          "indexed": true,
          "internalType": "address",
          "name": "owner",
          "type": "address"
        },
        {
          "indexed": true,
          "internalType": "address",
          "name": "approved",
          "type": "address"
        },
        {
          "indexed": true,
          "internalType": "uint256",
          "name": "tokenId",
          "type": "uint256"
        }
      ],
      "name": "Approval",
      "type": "event"
    },
    {
      "anonymous": false,
      "inputs": [
        {
          "indexed": true,
          "internalType": "address",
          "name": "owner",
          "type": "address"
        },
        {
          "indexed": true,
          "internalType": "address",
          "name": "operator",
          "type": "address"
        },
        {
          "indexed": false,
          "internalType": "bool",
          "name": "approved",
          "type": "bool"
        }
      ],
      "name": "ApprovalForAll",
      "type": "event"
    },
    {
      "anonymous": false,
      "inputs": [
        {
          "indexed": true,
          "internalType": "address",
          "name": "previousOwner",
          "type": "address"
        },
        {
          "indexed": true,
          "internalType": "address",
          "name": "newOwner",
          "type": "address"
        }
      ],
      "name": "OwnershipTransferred",
      "type": "event"
    },
    {
      "anonymous": false,
      "inputs": [
        {
          "indexed": true,
          "internalType": "address",
          "name": "from",
          "type": "address"
        },
        {
          "indexed": true,
          "internalType": "address",
          "name": "to",
          "type": "address"
        },
        {
          "indexed": true,
          "internalType": "uint256",
          "name": "tokenId",
          "type": "uint256"
        }
      ],
      "name": "Transfer",
      "type": "event"
    },
    {
      "inputs": [
        {
          "internalType": "address",
          "name": "to",
          "type": "address"
        },
        {
          "internalType": "uint256",
          "name": "tokenId",
          "type": "uint256"
        }
      ],
      "name": "approve",
      "outputs": [],
      "stateMutability": "nonpayable",
      "type": "function"
    },
    {
      "inputs": [
        {
          "internalType": "address",
          "name": "owner",
          "type": "address"
        }
      ],
      "name": "balanceOf",
      "outputs": [
        {
          "internalType": "uint256",
          "name": "",
          "type": "uint256"
        }
      ],
      "stateMutability": "view",
      "type": "function"
    },
    {
      "inputs": [
        {
          "internalType": "uint256",
          "name": "tokenId",
          "type": "uint256"
        }
      ],
      "name": "getApproved",
      "outputs": [
        {
          "internalType": "address",
          "name": "",
          "type": "address"
        }
      ],
      "stateMutability": "view",
      "type": "function"
    },
    {
      "inputs": [],
      "name": "hashRoot",
      "outputs": [
        {
          "internalType": "bytes32",
          "name": "",
          "type": "bytes32"
        }
      ],
      "stateMutability": "view",
      "type": "function"
    },
    {
      "inputs": [
        {
          "internalType": "address",
          "name": "owner",
          "type": "address"
        },
        {
          "internalType": "address",
          "name": "operator",
          "type": "address"
        }
      ],
      "name": "isApprovedForAll",
      "outputs": [
        {
          "internalType": "bool",
          "name": "",
          "type": "bool"
        }
      ],
      "stateMutability": "view",
      "type": "function"
    },
    {
      "inputs": [],
      "name": "isRevealed",
      "outputs": [
        {
          "internalType": "bool",
          "name": "",
          "type": "bool"
        }
      ],
      "stateMutability": "view",
      "type": "function"
    },
    {
      "inputs": [],
      "name": "kill",
      "outputs": [],
      "stateMutability": "nonpayable",
      "type": "function"
    },
    {
      "inputs": [
        {
          "internalType": "uint8",
          "name": "numberOfTokens",
          "type": "uint8"
        }
      ],
      "name": "mint",
      "outputs": [],
      "stateMutability": "payable",
      "type": "function"
    },
    {
      "inputs": [],
      "name": "name",
      "outputs": [
        {
          "internalType": "string",
          "name": "",
          "type": "string"
        }
      ],
      "stateMutability": "view",
      "type": "function"
    },
    {
      "inputs": [],
      "name": "owner",
      "outputs": [
        {
          "internalType": "address",
          "name": "",
          "type": "address"
        }
      ],
      "stateMutability": "view",
      "type": "function"
    },
    {
      "inputs": [
        {
          "internalType": "uint256",
          "name": "tokenId",
          "type": "uint256"
        }
      ],
      "name": "ownerOf",
      "outputs": [
        {
          "internalType": "address",
          "name": "",
          "type": "address"
        }
      ],
      "stateMutability": "view",
      "type": "function"
    },
    {
      "inputs": [],
      "name": "presaleActive",
      "outputs": [
        {
          "internalType": "bool",
          "name": "",
          "type": "bool"
        }
      ],
      "stateMutability": "view",
      "type": "function"
    },
    {
      "inputs": [],
      "name": "renounceOwnership",
      "outputs": [],
      "stateMutability": "nonpayable",
      "type": "function"
    },
    {
      "inputs": [
        {
          "internalType": "uint256",
          "name": "_tokenId",
          "type": "uint256"
        },
        {
          "internalType": "uint256",
          "name": "_salePrice",
          "type": "uint256"
        }
      ],
      "name": "royaltyInfo",
      "outputs": [
        {
          "internalType": "address",
          "name": "",
          "type": "address"
        },
        {
          "internalType": "uint256",
          "name": "royaltyAmount",
          "type": "uint256"
        }
      ],
      "stateMutability": "view",
      "type": "function"
    },
    {
      "inputs": [
        {
          "internalType": "address",
          "name": "from",
          "type": "address"
        },
        {
          "internalType": "address",
          "name": "to",
          "type": "address"
        },
        {
          "internalType": "uint256",
          "name": "tokenId",
          "type": "uint256"
        }
      ],
      "name": "safeTransferFrom",
      "outputs": [],
      "stateMutability": "nonpayable",
      "type": "function"
    },
    {
      "inputs": [
        {
          "internalType": "address",
          "name": "from",
          "type": "address"
        },
        {
          "internalType": "address",
          "name": "to",
          "type": "address"
        },
        {
          "internalType": "uint256",
          "name": "tokenId",
          "type": "uint256"
        },
        {
          "internalType": "bytes",
          "name": "_data",
          "type": "bytes"
        }
      ],
      "name": "safeTransferFrom",
      "outputs": [],
      "stateMutability": "nonpayable",
      "type": "function"
    },
    {
      "inputs": [],
      "name": "saleActive",
      "outputs": [
        {
          "internalType": "bool",
          "name": "",
          "type": "bool"
        }
      ],
      "stateMutability": "view",
      "type": "function"
    },
    {
      "inputs": [
        {
          "internalType": "address",
          "name": "operator",
          "type": "address"
        },
        {
          "internalType": "bool",
          "name": "approved",
          "type": "bool"
        }
      ],
      "name": "setApprovalForAll",
      "outputs": [],
      "stateMutability": "nonpayable",
      "type": "function"
    },
    {
      "inputs": [
        {
          "internalType": "string",
          "name": "uri",
          "type": "string"
        }
      ],
      "name": "setBaseUri",
      "outputs": [],
      "stateMutability": "nonpayable",
      "type": "function"
    },
    {
      "inputs": [
        {
          "internalType": "bool",
          "name": "newState",
          "type": "bool"
        }
      ],
      "name": "setPreSaleState",
      "outputs": [],
      "stateMutability": "nonpayable",
      "type": "function"
    },
    {
      "inputs": [
        {
          "internalType": "bool",
          "name": "newState",
          "type": "bool"
        }
      ],
      "name": "setSaleState",
      "outputs": [],
      "stateMutability": "nonpayable",
      "type": "function"
    },
    {
      "inputs": [
        {
          "internalType": "bytes4",
          "name": "interfaceId",
          "type": "bytes4"
        }
      ],
      "name": "supportsInterface",
      "outputs": [
        {
          "internalType": "bool",
          "name": "",
          "type": "bool"
        }
      ],
      "stateMutability": "view",
      "type": "function"
    },
    {
      "inputs": [],
      "name": "symbol",
      "outputs": [
        {
          "internalType": "string",
          "name": "",
          "type": "string"
        }
      ],
      "stateMutability": "view",
      "type": "function"
    },
    {
      "inputs": [],
      "name": "toggleReveal",
      "outputs": [],
      "stateMutability": "nonpayable",
      "type": "function"
    },
    {
      "inputs": [
        {
          "internalType": "uint256",
          "name": "tokenId",
          "type": "uint256"
        }
      ],
      "name": "tokenURI",
      "outputs": [
        {
          "internalType": "string",
          "name": "",
          "type": "string"
        }
      ],
      "stateMutability": "view",
      "type": "function"
    },
    {
      "inputs": [],
      "name": "totalSupply",
      "outputs": [
        {
          "internalType": "uint256",
          "name": "",
          "type": "uint256"
        }
      ],
      "stateMutability": "view",
      "type": "function"
    },
    {
      "inputs": [
        {
          "internalType": "address",
          "name": "from",
          "type": "address"
        },
        {
          "internalType": "address",
          "name": "to",
          "type": "address"
        },
        {
          "internalType": "uint256",
          "name": "tokenId",
          "type": "uint256"
        }
      ],
      "name": "transferFrom",
      "outputs": [],
      "stateMutability": "nonpayable",
      "type": "function"
    },
    {
      "inputs": [
        {
          "internalType": "address",
          "name": "newOwner",
          "type": "address"
        }
      ],
      "name": "transferOwnership",
      "outputs": [],
      "stateMutability": "nonpayable",
      "type": "function"
    },
    {
      "inputs": [],
      "name": "withdraw",
      "outputs": [],
      "stateMutability": "nonpayable",
      "type": "function"
    },
    {
      "inputs": [
        {
          "internalType": "bytes32[]",
          "name": "merkleproof",
          "type": "bytes32[]"
        },
        {
          "internalType": "uint8",
          "name": "numberOfTokens",
          "type": "uint8"
        }
      ],
      "name": "wlMint",
      "outputs": [
        {
          "internalType": "string",
          "name": "",
          "type": "string"
        }
      ],
      "stateMutability": "payable",
      "type": "function"
    }
  ],
  "bytecode": "0x60806040526000600a60006101000a81548160ff0219169083151502179055506000600a60016101000a81548160ff0219169083151502179055506000600a60026101000a81548160ff0219169083151502179055503480156200006257600080fd5b5060405162004435380380620044358339818101604052810190620000889190620004a4565b6040518060400160405280600981526020017f44696e6f537175616400000000000000000000000000000000000000000000008152506040518060400160405280600481526020017f44494e4f0000000000000000000000000000000000000000000000000000000081525062000114620001086200018660201b60201c565b6200018e60201b60201c565b81600390805190602001906200012c92919062000257565b5080600490805190602001906200014592919062000257565b50620001566200025260201b60201c565b6001819055505050600160098190555080600d90805190602001906200017e92919062000257565b50506200055a565b600033905090565b60008060009054906101000a900473ffffffffffffffffffffffffffffffffffffffff169050816000806101000a81548173ffffffffffffffffffffffffffffffffffffffff021916908373ffffffffffffffffffffffffffffffffffffffff1602179055508173ffffffffffffffffffffffffffffffffffffffff168173ffffffffffffffffffffffffffffffffffffffff167f8be0079c531659141344cd1fd0a4f28419497f9722a3daafe3b4186f6b6457e060405160405180910390a35050565b600090565b828054620002659062000524565b90600052602060002090601f016020900481019282620002895760008555620002d5565b82601f10620002a457805160ff1916838001178555620002d5565b82800160010185558215620002d5579182015b82811115620002d4578251825591602001919060010190620002b7565b5b509050620002e49190620002e8565b5090565b5b8082111562000303576000816000905550600101620002e9565b5090565b6000604051905090565b600080fd5b600080fd5b600080fd5b600080fd5b6000601f19601f8301169050919050565b7f4e487b7100000000000000000000000000000000000000000000000000000000600052604160045260246000fd5b620003708262000325565b810181811067ffffffffffffffff8211171562000392576200039162000336565b5b80604052505050565b6000620003a762000307565b9050620003b5828262000365565b919050565b600067ffffffffffffffff821115620003d857620003d762000336565b5b620003e38262000325565b9050602081019050919050565b60005b8381101562000410578082015181840152602081019050620003f3565b8381111562000420576000848401525b50505050565b60006200043d6200043784620003ba565b6200039b565b9050828152602081018484840111156200045c576200045b62000320565b5b62000469848285620003f0565b509392505050565b600082601f8301126200048957620004886200031b565b5b81516200049b84826020860162000426565b91505092915050565b600060208284031215620004bd57620004bc62000311565b5b600082015167ffffffffffffffff811115620004de57620004dd62000316565b5b620004ec8482850162000471565b91505092915050565b7f4e487b7100000000000000000000000000000000000000000000000000000000600052602260045260246000fd5b600060028204905060018216806200053d57607f821691505b60208210811415620005545762000553620004f5565b5b50919050565b613ecb806200056a6000396000f3fe6080604052600436106101cd5760003560e01c80636352211e116100f7578063a0bcfc7f11610095578063c4e3709511610064578063c4e3709514610623578063c87b56dd1461064c578063e985e9c514610689578063f2fde38b146106c6576101cd565b8063a0bcfc7f1461057d578063a22cb465146105a6578063b29a3105146105cf578063b88d4fde146105fa576101cd565b806370a08231116100d157806370a08231146104d3578063715018a6146105105780638da5cb5b1461052757806395d89b4114610552576101cd565b80636352211e1461044f57806368428a1b1461048c5780636ecd2306146104b7576101cd565b80633ca6fb8c1161016f57806353135ca01161013e57806353135ca0146103b257806354214f69146103dd5780635b8ad429146104085780635cbe61b41461041f576101cd565b80633ca6fb8c146103325780633ccfd60b1461035b57806341c0e1b51461037257806342842e0e14610389576101cd565b8063095ea7b3116101ab578063095ea7b31461027757806318160ddd146102a057806323b872dd146102cb5780632a55205a146102f4576101cd565b806301ffc9a7146101d257806306fdde031461020f578063081812fc1461023a575b600080fd5b3480156101de57600080fd5b506101f960048036038101906101f49190612ce1565b6106ef565b6040516102069190612d29565b60405180910390f35b34801561021b57600080fd5b506102246107d1565b6040516102319190612ddd565b60405180910390f35b34801561024657600080fd5b50610261600480360381019061025c9190612e35565b610863565b60405161026e9190612ea3565b60405180910390f35b34801561028357600080fd5b5061029e60048036038101906102999190612eea565b6108df565b005b3480156102ac57600080fd5b506102b56109e4565b6040516102c29190612f39565b60405180910390f35b3480156102d757600080fd5b506102f260048036038101906102ed9190612f54565b6109fb565b005b34801561030057600080fd5b5061031b60048036038101906103169190612fa7565b610a0b565b604051610329929190612fe7565b60405180910390f35b34801561033e57600080fd5b506103596004803603810190610354919061303c565b610a55565b005b34801561036757600080fd5b50610370610aee565b005b34801561037e57600080fd5b50610387610c2c565b005b34801561039557600080fd5b506103b060048036038101906103ab9190612f54565b610cc1565b005b3480156103be57600080fd5b506103c7610ce1565b6040516103d49190612d29565b60405180910390f35b3480156103e957600080fd5b506103f2610cf4565b6040516103ff9190612d29565b60405180910390f35b34801561041457600080fd5b5061041d610d07565b005b61043960048036038101906104349190613107565b610daf565b6040516104469190612ddd565b60405180910390f35b34801561045b57600080fd5b5061047660048036038101906104719190612e35565b611006565b6040516104839190612ea3565b60405180910390f35b34801561049857600080fd5b506104a161101c565b6040516104ae9190612d29565b60405180910390f35b6104d160048036038101906104cc9190613167565b61102f565b005b3480156104df57600080fd5b506104fa60048036038101906104f59190613194565b611283565b6040516105079190612f39565b60405180910390f35b34801561051c57600080fd5b50610525611353565b005b34801561053357600080fd5b5061053c6113db565b6040516105499190612ea3565b60405180910390f35b34801561055e57600080fd5b50610567611404565b6040516105749190612ddd565b60405180910390f35b34801561058957600080fd5b506105a4600480360381019061059f91906132f1565b611496565b005b3480156105b257600080fd5b506105cd60048036038101906105c8919061333a565b61152c565b005b3480156105db57600080fd5b506105e46116a4565b6040516105f19190613393565b60405180910390f35b34801561060657600080fd5b50610621600480360381019061061c919061344f565b6116aa565b005b34801561062f57600080fd5b5061064a6004803603810190610645919061303c565b611722565b005b34801561065857600080fd5b50610673600480360381019061066e9190612e35565b6117bb565b6040516106809190612ddd565b60405180910390f35b34801561069557600080fd5b506106b060048036038101906106ab91906134d2565b61189e565b6040516106bd9190612d29565b60405180910390f35b3480156106d257600080fd5b506106ed60048036038101906106e89190613194565b611932565b005b60007f80ac58cd000000000000000000000000000000000000000000000000000000007bffffffffffffffffffffffffffffffffffffffffffffffffffffffff1916827bffffffffffffffffffffffffffffffffffffffffffffffffffffffff191614806107ba57507f5b5e139f000000000000000000000000000000000000000000000000000000007bffffffffffffffffffffffffffffffffffffffffffffffffffffffff1916827bffffffffffffffffffffffffffffffffffffffffffffffffffffffff1916145b806107ca57506107c982611a2a565b5b9050919050565b6060600380546107e090613541565b80601f016020809104026020016040519081016040528092919081815260200182805461080c90613541565b80156108595780601f1061082e57610100808354040283529160200191610859565b820191906000526020600020905b81548152906001019060200180831161083c57829003601f168201915b5050505050905090565b600061086e82611a94565b6108a4576040517fcf4700e400000000000000000000000000000000000000000000000000000000815260040160405180910390fd5b6007600083815260200190815260200160002060009054906101000a900473ffffffffffffffffffffffffffffffffffffffff169050919050565b60006108ea82611006565b90508073ffffffffffffffffffffffffffffffffffffffff168373ffffffffffffffffffffffffffffffffffffffff161415610952576040517f943f7b8c00000000000000000000000000000000000000000000000000000000815260040160405180910390fd5b8073ffffffffffffffffffffffffffffffffffffffff16610971611ae2565b73ffffffffffffffffffffffffffffffffffffffff16146109d45761099d81610998611ae2565b61189e565b6109d3576040517fcfb3b94200000000000000000000000000000000000000000000000000000000815260040160405180910390fd5b5b6109df838383611aea565b505050565b60006109ee611b9c565b6002546001540303905090565b610a06838383611ba1565b505050565b6000806005606484610a1d91906135d1565b610a279190613602565b9050600c60009054906101000a900473ffffffffffffffffffffffffffffffffffffffff1691509250929050565b610a5d611ae2565b73ffffffffffffffffffffffffffffffffffffffff16610a7b6113db565b73ffffffffffffffffffffffffffffffffffffffff1614610ad1576040517f08c379a0000000000000000000000000000000000000000000000000000000008152600401610ac8906136a8565b60405180910390fd5b80600a60016101000a81548160ff02191690831515021790555050565b610af6611ae2565b73ffffffffffffffffffffffffffffffffffffffff16610b146113db565b73ffffffffffffffffffffffffffffffffffffffff1614610b6a576040517f08c379a0000000000000000000000000000000000000000000000000000000008152600401610b61906136a8565b60405180910390fd5b600047905073b2cd18c595447b50c1581bfbeaebeadc4d8a6bd873ffffffffffffffffffffffffffffffffffffffff166108fc6064600184610bac9190613602565b610bb691906135d1565b9081150290604051600060405180830381858888f19350505050158015610be1573d6000803e3d6000fd5b503373ffffffffffffffffffffffffffffffffffffffff166108fc479081150290604051600060405180830381858888f19350505050158015610c28573d6000803e3d6000fd5b5050565b610c34611ae2565b73ffffffffffffffffffffffffffffffffffffffff16610c526113db565b73ffffffffffffffffffffffffffffffffffffffff1614610ca8576040517f08c379a0000000000000000000000000000000000000000000000000000000008152600401610c9f906136a8565b60405180910390fd5b3373ffffffffffffffffffffffffffffffffffffffff16ff5b610cdc838383604051806020016040528060008152506116aa565b505050565b600a60019054906101000a900460ff1681565b600a60029054906101000a900460ff1681565b610d0f611ae2565b73ffffffffffffffffffffffffffffffffffffffff16610d2d6113db565b73ffffffffffffffffffffffffffffffffffffffff1614610d83576040517f08c379a0000000000000000000000000000000000000000000000000000000008152600401610d7a906136a8565b60405180910390fd5b600a60029054906101000a900460ff1615600a60026101000a81548160ff021916908315150217905550565b60606000610dbb6109e4565b9050600a60019054906101000a900460ff16610e0c576040517f08c379a0000000000000000000000000000000000000000000000000000000008152600401610e039061373a565b60405180910390fd5b60028360ff161115610e53576040517f08c379a0000000000000000000000000000000000000000000000000000000008152600401610e4a906137a6565b60405180910390fd5b6115b38360ff1682610e6591906137c6565b1115610ea6576040517f08c379a0000000000000000000000000000000000000000000000000000000008152600401610e9d90613868565b60405180910390fd5b348360ff166701b4fbd92b5f8000610ebe9190613602565b14610efe576040517f08c379a0000000000000000000000000000000000000000000000000000000008152600401610ef5906138d4565b60405180910390fd5b610f09858533612057565b610f48576040517f08c379a0000000000000000000000000000000000000000000000000000000008152600401610f3f90613940565b60405180910390fd5b82601060003373ffffffffffffffffffffffffffffffffffffffff1673ffffffffffffffffffffffffffffffffffffffff16815260200190815260200160002060008282829054906101000a900460ff16610fa39190613960565b92506101000a81548160ff021916908360ff160217905550610fc63360016120db565b6040518060400160405280600681526020017f4d696e74656400000000000000000000000000000000000000000000000000008152509150509392505050565b6000611011826120f9565b600001519050919050565b600a60009054906101000a900460ff1681565b60006110396109e4565b9050600a60009054906101000a900460ff1661108a576040517f08c379a000000000000000000000000000000000000000000000000000000000815260040161108190613a09565b60405180910390fd5b60028260ff1611156110d1576040517f08c379a00000000000000000000000000000000000000000000000000000000081526004016110c8906137a6565b60405180910390fd5b600282600f60003373ffffffffffffffffffffffffffffffffffffffff1673ffffffffffffffffffffffffffffffffffffffff16815260200190815260200160002060009054906101000a900460ff1661112b9190613960565b60ff16111561116f576040517f08c379a000000000000000000000000000000000000000000000000000000000815260040161116690613a75565b60405180910390fd5b6115b38260ff168261118191906137c6565b11156111c2576040517f08c379a00000000000000000000000000000000000000000000000000000000081526004016111b990613868565b60405180910390fd5b348260ff166701b4fbd92b5f80006111da9190613602565b1461121a576040517f08c379a0000000000000000000000000000000000000000000000000000000008152600401611211906138d4565b60405180910390fd5b81600f60003373ffffffffffffffffffffffffffffffffffffffff1673ffffffffffffffffffffffffffffffffffffffff16815260200190815260200160002060006101000a81548160ff021916908360ff16021790555061127f338360ff166120db565b5050565b60008073ffffffffffffffffffffffffffffffffffffffff168273ffffffffffffffffffffffffffffffffffffffff1614156112eb576040517f8f4eb60400000000000000000000000000000000000000000000000000000000815260040160405180910390fd5b600660008373ffffffffffffffffffffffffffffffffffffffff1673ffffffffffffffffffffffffffffffffffffffff16815260200190815260200160002060000160009054906101000a900467ffffffffffffffff1667ffffffffffffffff169050919050565b61135b611ae2565b73ffffffffffffffffffffffffffffffffffffffff166113796113db565b73ffffffffffffffffffffffffffffffffffffffff16146113cf576040517f08c379a00000000000000000000000000000000000000000000000000000000081526004016113c6906136a8565b60405180910390fd5b6113d96000612384565b565b60008060009054906101000a900473ffffffffffffffffffffffffffffffffffffffff16905090565b60606004805461141390613541565b80601f016020809104026020016040519081016040528092919081815260200182805461143f90613541565b801561148c5780601f106114615761010080835404028352916020019161148c565b820191906000526020600020905b81548152906001019060200180831161146f57829003601f168201915b5050505050905090565b61149e611ae2565b73ffffffffffffffffffffffffffffffffffffffff166114bc6113db565b73ffffffffffffffffffffffffffffffffffffffff1614611512576040517f08c379a0000000000000000000000000000000000000000000000000000000008152600401611509906136a8565b60405180910390fd5b80600e9080519060200190611528929190612b8f565b5050565b611534611ae2565b73ffffffffffffffffffffffffffffffffffffffff168273ffffffffffffffffffffffffffffffffffffffff161415611599576040517fb06307db00000000000000000000000000000000000000000000000000000000815260040160405180910390fd5b80600860006115a6611ae2565b73ffffffffffffffffffffffffffffffffffffffff1673ffffffffffffffffffffffffffffffffffffffff16815260200190815260200160002060008473ffffffffffffffffffffffffffffffffffffffff1673ffffffffffffffffffffffffffffffffffffffff16815260200190815260200160002060006101000a81548160ff0219169083151502179055508173ffffffffffffffffffffffffffffffffffffffff16611653611ae2565b73ffffffffffffffffffffffffffffffffffffffff167f17307eab39ab6107e8899845ad3d59bd9653f200f220920489ca2b5937696c31836040516116989190612d29565b60405180910390a35050565b600b5481565b6116b5848484611ba1565b6116d48373ffffffffffffffffffffffffffffffffffffffff16612448565b1561171c576116e58484848461246b565b61171b576040517fd1a57ed600000000000000000000000000000000000000000000000000000000815260040160405180910390fd5b5b50505050565b61172a611ae2565b73ffffffffffffffffffffffffffffffffffffffff166117486113db565b73ffffffffffffffffffffffffffffffffffffffff161461179e576040517f08c379a0000000000000000000000000000000000000000000000000000000008152600401611795906136a8565b60405180910390fd5b80600a60006101000a81548160ff02191690831515021790555050565b606060011515600a60029054906101000a900460ff161515141561180b57600e6117e4836125bc565b6040516020016117f5929190613bb1565b6040516020818303038152906040529050611899565b600d805461181890613541565b80601f016020809104026020016040519081016040528092919081815260200182805461184490613541565b80156118915780601f1061186657610100808354040283529160200191611891565b820191906000526020600020905b81548152906001019060200180831161187457829003601f168201915b505050505090505b919050565b6000600860008473ffffffffffffffffffffffffffffffffffffffff1673ffffffffffffffffffffffffffffffffffffffff16815260200190815260200160002060008373ffffffffffffffffffffffffffffffffffffffff1673ffffffffffffffffffffffffffffffffffffffff16815260200190815260200160002060009054906101000a900460ff16905092915050565b61193a611ae2565b73ffffffffffffffffffffffffffffffffffffffff166119586113db565b73ffffffffffffffffffffffffffffffffffffffff16146119ae576040517f08c379a00000000000000000000000000000000000000000000000000000000081526004016119a5906136a8565b60405180910390fd5b600073ffffffffffffffffffffffffffffffffffffffff168173ffffffffffffffffffffffffffffffffffffffff161415611a1e576040517f08c379a0000000000000000000000000000000000000000000000000000000008152600401611a1590613c52565b60405180910390fd5b611a2781612384565b50565b60007f01ffc9a7000000000000000000000000000000000000000000000000000000007bffffffffffffffffffffffffffffffffffffffffffffffffffffffff1916827bffffffffffffffffffffffffffffffffffffffffffffffffffffffff1916149050919050565b600081611a9f611b9c565b11158015611aae575060015482105b8015611adb575060056000838152602001908152602001600020600001601c9054906101000a900460ff16155b9050919050565b600033905090565b826007600084815260200190815260200160002060006101000a81548173ffffffffffffffffffffffffffffffffffffffff021916908373ffffffffffffffffffffffffffffffffffffffff160217905550818373ffffffffffffffffffffffffffffffffffffffff168273ffffffffffffffffffffffffffffffffffffffff167f8c5be1e5ebec7d5bd14f71427d1e84f3dd0314c0f7b2291e5b200ac8c7c3b92560405160405180910390a4505050565b600090565b6000611bac826120f9565b90508373ffffffffffffffffffffffffffffffffffffffff16816000015173ffffffffffffffffffffffffffffffffffffffff1614611c17576040517fa114810000000000000000000000000000000000000000000000000000000000815260040160405180910390fd5b60008473ffffffffffffffffffffffffffffffffffffffff16611c38611ae2565b73ffffffffffffffffffffffffffffffffffffffff161480611c675750611c6685611c61611ae2565b61189e565b5b80611cac5750611c75611ae2565b73ffffffffffffffffffffffffffffffffffffffff16611c9484610863565b73ffffffffffffffffffffffffffffffffffffffff16145b905080611ce5576040517f59c896be00000000000000000000000000000000000000000000000000000000815260040160405180910390fd5b600073ffffffffffffffffffffffffffffffffffffffff168473ffffffffffffffffffffffffffffffffffffffff161415611d4c576040517fea553b3400000000000000000000000000000000000000000000000000000000815260040160405180910390fd5b611d59858585600161271d565b611d6560008487611aea565b6001600660008773ffffffffffffffffffffffffffffffffffffffff1673ffffffffffffffffffffffffffffffffffffffff16815260200190815260200160002060000160008282829054906101000a900467ffffffffffffffff160392506101000a81548167ffffffffffffffff021916908367ffffffffffffffff1602179055506001600660008673ffffffffffffffffffffffffffffffffffffffff1673ffffffffffffffffffffffffffffffffffffffff16815260200190815260200160002060000160008282829054906101000a900467ffffffffffffffff160192506101000a81548167ffffffffffffffff021916908367ffffffffffffffff1602179055506000600560008581526020019081526020016000209050848160000160006101000a81548173ffffffffffffffffffffffffffffffffffffffff021916908373ffffffffffffffffffffffffffffffffffffffff160217905550428160000160146101000a81548167ffffffffffffffff021916908367ffffffffffffffff16021790555060006001850190506000600560008381526020019081526020016000209050600073ffffffffffffffffffffffffffffffffffffffff168160000160009054906101000a900473ffffffffffffffffffffffffffffffffffffffff1673ffffffffffffffffffffffffffffffffffffffff161415611fe5576001548214611fe457878160000160006101000a81548173ffffffffffffffffffffffffffffffffffffffff021916908373ffffffffffffffffffffffffffffffffffffffff16021790555084602001518160000160146101000a81548167ffffffffffffffff021916908367ffffffffffffffff1602179055505b5b505050828473ffffffffffffffffffffffffffffffffffffffff168673ffffffffffffffffffffffffffffffffffffffff167fddf252ad1be2c89b69c2b068fc378daa952ba7f163c4a11628f55a4df523b3ef60405160405180910390a46120508585856001612723565b5050505050565b6000808260405160200161206b9190613cba565b6040516020818303038152906040528051906020012090506120d1858580806020026020016040519081016040528093929190818152602001838360200280828437600081840152601f19601f82011690508083019250505050505050600b5483612729565b9150509392505050565b6120f5828260405180602001604052806000815250612740565b5050565b612101612c15565b60008290508061210f611b9c565b1161234d5760015481101561234c576000600560008381526020019081526020016000206040518060600160405290816000820160009054906101000a900473ffffffffffffffffffffffffffffffffffffffff1673ffffffffffffffffffffffffffffffffffffffff1673ffffffffffffffffffffffffffffffffffffffff1681526020016000820160149054906101000a900467ffffffffffffffff1667ffffffffffffffff1667ffffffffffffffff16815260200160008201601c9054906101000a900460ff1615151515815250509050806040015161234a57600073ffffffffffffffffffffffffffffffffffffffff16816000015173ffffffffffffffffffffffffffffffffffffffff161461222e57809250505061237f565b5b60011561234957818060019003925050600560008381526020019081526020016000206040518060600160405290816000820160009054906101000a900473ffffffffffffffffffffffffffffffffffffffff1673ffffffffffffffffffffffffffffffffffffffff1673ffffffffffffffffffffffffffffffffffffffff1681526020016000820160149054906101000a900467ffffffffffffffff1667ffffffffffffffff1667ffffffffffffffff16815260200160008201601c9054906101000a900460ff1615151515815250509050600073ffffffffffffffffffffffffffffffffffffffff16816000015173ffffffffffffffffffffffffffffffffffffffff161461234457809250505061237f565b61222f565b5b505b5b6040517fdf2d9b4200000000000000000000000000000000000000000000000000000000815260040160405180910390fd5b919050565b60008060009054906101000a900473ffffffffffffffffffffffffffffffffffffffff169050816000806101000a81548173ffffffffffffffffffffffffffffffffffffffff021916908373ffffffffffffffffffffffffffffffffffffffff1602179055508173ffffffffffffffffffffffffffffffffffffffff168173ffffffffffffffffffffffffffffffffffffffff167f8be0079c531659141344cd1fd0a4f28419497f9722a3daafe3b4186f6b6457e060405160405180910390a35050565b6000808273ffffffffffffffffffffffffffffffffffffffff163b119050919050565b60008373ffffffffffffffffffffffffffffffffffffffff1663150b7a02612491611ae2565b8786866040518563ffffffff1660e01b81526004016124b39493929190613d2a565b6020604051808303816000875af19250505080156124ef57506040513d601f19601f820116820180604052508101906124ec9190613d8b565b60015b612569573d806000811461251f576040519150601f19603f3d011682016040523d82523d6000602084013e612524565b606091505b50600081511415612561576040517fd1a57ed600000000000000000000000000000000000000000000000000000000815260040160405180910390fd5b805181602001fd5b63150b7a0260e01b7bffffffffffffffffffffffffffffffffffffffffffffffffffffffff1916817bffffffffffffffffffffffffffffffffffffffffffffffffffffffff191614915050949350505050565b60606000821415612604576040518060400160405280600181526020017f30000000000000000000000000000000000000000000000000000000000000008152509050612718565b600082905060005b6000821461263657808061261f90613db8565b915050600a8261262f91906135d1565b915061260c565b60008167ffffffffffffffff811115612652576126516131c6565b5b6040519080825280601f01601f1916602001820160405280156126845781602001600182028036833780820191505090505b5090505b600085146127115760018261269d9190613e01565b9150600a856126ac9190613e35565b60306126b891906137c6565b60f81b8183815181106126ce576126cd613e66565b5b60200101907effffffffffffffffffffffffffffffffffffffffffffffffffffffffffffff1916908160001a905350600a8561270a91906135d1565b9450612688565b8093505050505b919050565b50505050565b50505050565b6000826127368584612b03565b1490509392505050565b60006001549050600073ffffffffffffffffffffffffffffffffffffffff168473ffffffffffffffffffffffffffffffffffffffff1614156127ae576040517f2e07630000000000000000000000000000000000000000000000000000000000815260040160405180910390fd5b60008314156127e9576040517fb562e8dd00000000000000000000000000000000000000000000000000000000815260040160405180910390fd5b6127f6600085838661271d565b82600660008673ffffffffffffffffffffffffffffffffffffffff1673ffffffffffffffffffffffffffffffffffffffff16815260200190815260200160002060000160008282829054906101000a900467ffffffffffffffff160192506101000a81548167ffffffffffffffff021916908367ffffffffffffffff16021790555082600660008673ffffffffffffffffffffffffffffffffffffffff1673ffffffffffffffffffffffffffffffffffffffff16815260200190815260200160002060000160088282829054906101000a900467ffffffffffffffff160192506101000a81548167ffffffffffffffff021916908367ffffffffffffffff160217905550836005600083815260200190815260200160002060000160006101000a81548173ffffffffffffffffffffffffffffffffffffffff021916908373ffffffffffffffffffffffffffffffffffffffff160217905550426005600083815260200190815260200160002060000160146101000a81548167ffffffffffffffff021916908367ffffffffffffffff1602179055506000819050600084820190506129b78673ffffffffffffffffffffffffffffffffffffffff16612448565b15612a7c575b818673ffffffffffffffffffffffffffffffffffffffff16600073ffffffffffffffffffffffffffffffffffffffff167fddf252ad1be2c89b69c2b068fc378daa952ba7f163c4a11628f55a4df523b3ef60405160405180910390a4612a2c600087848060010195508761246b565b612a62576040517fd1a57ed600000000000000000000000000000000000000000000000000000000815260040160405180910390fd5b8082106129bd578260015414612a7757600080fd5b612ae7565b5b818060010192508673ffffffffffffffffffffffffffffffffffffffff16600073ffffffffffffffffffffffffffffffffffffffff167fddf252ad1be2c89b69c2b068fc378daa952ba7f163c4a11628f55a4df523b3ef60405160405180910390a4808210612a7d575b816001819055505050612afd6000858386612723565b50505050565b60008082905060005b8451811015612b6d576000858281518110612b2a57612b29613e66565b5b60200260200101519050808311612b4c57612b458382612b78565b9250612b59565b612b568184612b78565b92505b508080612b6590613db8565b915050612b0c565b508091505092915050565b600082600052816020526040600020905092915050565b828054612b9b90613541565b90600052602060002090601f016020900481019282612bbd5760008555612c04565b82601f10612bd657805160ff1916838001178555612c04565b82800160010185558215612c04579182015b82811115612c03578251825591602001919060010190612be8565b5b509050612c119190612c58565b5090565b6040518060600160405280600073ffffffffffffffffffffffffffffffffffffffff168152602001600067ffffffffffffffff1681526020016000151581525090565b5b80821115612c71576000816000905550600101612c59565b5090565b6000604051905090565b600080fd5b600080fd5b60007fffffffff0000000000000000000000000000000000000000000000000000000082169050919050565b612cbe81612c89565b8114612cc957600080fd5b50565b600081359050612cdb81612cb5565b92915050565b600060208284031215612cf757612cf6612c7f565b5b6000612d0584828501612ccc565b91505092915050565b60008115159050919050565b612d2381612d0e565b82525050565b6000602082019050612d3e6000830184612d1a565b92915050565b600081519050919050565b600082825260208201905092915050565b60005b83811015612d7e578082015181840152602081019050612d63565b83811115612d8d576000848401525b50505050565b6000601f19601f8301169050919050565b6000612daf82612d44565b612db98185612d4f565b9350612dc9818560208601612d60565b612dd281612d93565b840191505092915050565b60006020820190508181036000830152612df78184612da4565b905092915050565b6000819050919050565b612e1281612dff565b8114612e1d57600080fd5b50565b600081359050612e2f81612e09565b92915050565b600060208284031215612e4b57612e4a612c7f565b5b6000612e5984828501612e20565b91505092915050565b600073ffffffffffffffffffffffffffffffffffffffff82169050919050565b6000612e8d82612e62565b9050919050565b612e9d81612e82565b82525050565b6000602082019050612eb86000830184612e94565b92915050565b612ec781612e82565b8114612ed257600080fd5b50565b600081359050612ee481612ebe565b92915050565b60008060408385031215612f0157612f00612c7f565b5b6000612f0f85828601612ed5565b9250506020612f2085828601612e20565b9150509250929050565b612f3381612dff565b82525050565b6000602082019050612f4e6000830184612f2a565b92915050565b600080600060608486031215612f6d57612f6c612c7f565b5b6000612f7b86828701612ed5565b9350506020612f8c86828701612ed5565b9250506040612f9d86828701612e20565b9150509250925092565b60008060408385031215612fbe57612fbd612c7f565b5b6000612fcc85828601612e20565b9250506020612fdd85828601612e20565b9150509250929050565b6000604082019050612ffc6000830185612e94565b6130096020830184612f2a565b9392505050565b61301981612d0e565b811461302457600080fd5b50565b60008135905061303681613010565b92915050565b60006020828403121561305257613051612c7f565b5b600061306084828501613027565b91505092915050565b600080fd5b600080fd5b600080fd5b60008083601f84011261308e5761308d613069565b5b8235905067ffffffffffffffff8111156130ab576130aa61306e565b5b6020830191508360208202830111156130c7576130c6613073565b5b9250929050565b600060ff82169050919050565b6130e4816130ce565b81146130ef57600080fd5b50565b600081359050613101816130db565b92915050565b6000806000604084860312156131205761311f612c7f565b5b600084013567ffffffffffffffff81111561313e5761313d612c84565b5b61314a86828701613078565b9350935050602061315d868287016130f2565b9150509250925092565b60006020828403121561317d5761317c612c7f565b5b600061318b848285016130f2565b91505092915050565b6000602082840312156131aa576131a9612c7f565b5b60006131b884828501612ed5565b91505092915050565b600080fd5b7f4e487b7100000000000000000000000000000000000000000000000000000000600052604160045260246000fd5b6131fe82612d93565b810181811067ffffffffffffffff8211171561321d5761321c6131c6565b5b80604052505050565b6000613230612c75565b905061323c82826131f5565b919050565b600067ffffffffffffffff82111561325c5761325b6131c6565b5b61326582612d93565b9050602081019050919050565b82818337600083830152505050565b600061329461328f84613241565b613226565b9050828152602081018484840111156132b0576132af6131c1565b5b6132bb848285613272565b509392505050565b600082601f8301126132d8576132d7613069565b5b81356132e8848260208601613281565b91505092915050565b60006020828403121561330757613306612c7f565b5b600082013567ffffffffffffffff81111561332557613324612c84565b5b613331848285016132c3565b91505092915050565b6000806040838503121561335157613350612c7f565b5b600061335f85828601612ed5565b925050602061337085828601613027565b9150509250929050565b6000819050919050565b61338d8161337a565b82525050565b60006020820190506133a86000830184613384565b92915050565b600067ffffffffffffffff8211156133c9576133c86131c6565b5b6133d282612d93565b9050602081019050919050565b60006133f26133ed846133ae565b613226565b90508281526020810184848401111561340e5761340d6131c1565b5b613419848285613272565b509392505050565b600082601f83011261343657613435613069565b5b81356134468482602086016133df565b91505092915050565b6000806000806080858703121561346957613468612c7f565b5b600061347787828801612ed5565b945050602061348887828801612ed5565b935050604061349987828801612e20565b925050606085013567ffffffffffffffff8111156134ba576134b9612c84565b5b6134c687828801613421565b91505092959194509250565b600080604083850312156134e9576134e8612c7f565b5b60006134f785828601612ed5565b925050602061350885828601612ed5565b9150509250929050565b7f4e487b7100000000000000000000000000000000000000000000000000000000600052602260045260246000fd5b6000600282049050600182168061355957607f821691505b6020821081141561356d5761356c613512565b5b50919050565b7f4e487b7100000000000000000000000000000000000000000000000000000000600052601260045260246000fd5b7f4e487b7100000000000000000000000000000000000000000000000000000000600052601160045260246000fd5b60006135dc82612dff565b91506135e783612dff565b9250826135f7576135f6613573565b5b828204905092915050565b600061360d82612dff565b915061361883612dff565b9250817fffffffffffffffffffffffffffffffffffffffffffffffffffffffffffffffff0483118215151615613651576136506135a2565b5b828202905092915050565b7f4f776e61626c653a2063616c6c6572206973206e6f7420746865206f776e6572600082015250565b6000613692602083612d4f565b915061369d8261365c565b602082019050919050565b600060208201905081810360008301526136c181613685565b9050919050565b7f5072652073616c65206d7573742062652061637469766520746f206d696e742060008201527f746f6b656e730000000000000000000000000000000000000000000000000000602082015250565b6000613724602683612d4f565b915061372f826136c8565b604082019050919050565b6000602082019050818103600083015261375381613717565b9050919050565b7f4578636565646564206d617820746f6b656e2070757263686173650000000000600082015250565b6000613790601b83612d4f565b915061379b8261375a565b602082019050919050565b600060208201905081810360008301526137bf81613783565b9050919050565b60006137d182612dff565b91506137dc83612dff565b9250827fffffffffffffffffffffffffffffffffffffffffffffffffffffffffffffffff03821115613811576138106135a2565b5b828201905092915050565b7f507572636861736520776f756c6420657863656564206d617820746f6b656e73600082015250565b6000613852602083612d4f565b915061385d8261381c565b602082019050919050565b6000602082019050818103600083015261388181613845565b9050919050565b7f45746865722076616c75652073656e74206973206e6f7420636f727265637400600082015250565b60006138be601f83612d4f565b91506138c982613888565b602082019050919050565b600060208201905081810360008301526138ed816138b1565b9050919050565b7f55736572206973206e6f742077686974656c6973746564000000000000000000600082015250565b600061392a601783612d4f565b9150613935826138f4565b602082019050919050565b600060208201905081810360008301526139598161391d565b9050919050565b600061396b826130ce565b9150613976836130ce565b92508260ff0382111561398c5761398b6135a2565b5b828201905092915050565b7f53616c65206d7573742062652061637469766520746f206d696e7420746f6b6560008201527f6e73000000000000000000000000000000000000000000000000000000000000602082015250565b60006139f3602283612d4f565b91506139fe82613997565b604082019050919050565b60006020820190508181036000830152613a22816139e6565b9050919050565b7f4d6178206d696e742069732035207065722077616c6c65740000000000000000600082015250565b6000613a5f601883612d4f565b9150613a6a82613a29565b602082019050919050565b60006020820190508181036000830152613a8e81613a52565b9050919050565b600081905092915050565b60008190508160005260206000209050919050565b60008154613ac281613541565b613acc8186613a95565b94506001821660008114613ae75760018114613af857613b2b565b60ff19831686528186019350613b2b565b613b0185613aa0565b60005b83811015613b2357815481890152600182019150602081019050613b04565b838801955050505b50505092915050565b6000613b3f82612d44565b613b498185613a95565b9350613b59818560208601612d60565b80840191505092915050565b7f2e6a736f6e000000000000000000000000000000000000000000000000000000600082015250565b6000613b9b600583613a95565b9150613ba682613b65565b600582019050919050565b6000613bbd8285613ab5565b9150613bc98284613b34565b9150613bd482613b8e565b91508190509392505050565b7f4f776e61626c653a206e6577206f776e657220697320746865207a65726f206160008201527f6464726573730000000000000000000000000000000000000000000000000000602082015250565b6000613c3c602683612d4f565b9150613c4782613be0565b604082019050919050565b60006020820190508181036000830152613c6b81613c2f565b9050919050565b60008160601b9050919050565b6000613c8a82613c72565b9050919050565b6000613c9c82613c7f565b9050919050565b613cb4613caf82612e82565b613c91565b82525050565b6000613cc68284613ca3565b60148201915081905092915050565b600081519050919050565b600082825260208201905092915050565b6000613cfc82613cd5565b613d068185613ce0565b9350613d16818560208601612d60565b613d1f81612d93565b840191505092915050565b6000608082019050613d3f6000830187612e94565b613d4c6020830186612e94565b613d596040830185612f2a565b8181036060830152613d6b8184613cf1565b905095945050505050565b600081519050613d8581612cb5565b92915050565b600060208284031215613da157613da0612c7f565b5b6000613daf84828501613d76565b91505092915050565b6000613dc382612dff565b91507fffffffffffffffffffffffffffffffffffffffffffffffffffffffffffffffff821415613df657613df56135a2565b5b600182019050919050565b6000613e0c82612dff565b9150613e1783612dff565b925082821015613e2a57613e296135a2565b5b828203905092915050565b6000613e4082612dff565b9150613e4b83612dff565b925082613e5b57613e5a613573565b5b828206905092915050565b7f4e487b7100000000000000000000000000000000000000000000000000000000600052603260045260246000fdfea26469706673582212206010e1a45b228460cf82a59a7405123dec5b2825546fb0afb437ad0ebb0737bb64736f6c634300080b0033",
  "linkReferences": {},
  "deployedLinkReferences": {}
}